{
  "contractName": "ScoreVoting",
  "abi": [
    {
      "inputs": [],
      "stateMutability": "nonpayable",
      "type": "constructor"
    },
    {
      "anonymous": false,
      "inputs": [
        {
          "indexed": false,
          "internalType": "address",
          "name": "voter",
          "type": "address"
        },
        {
          "indexed": false,
          "internalType": "uint256",
          "name": "candidateId",
          "type": "uint256"
        },
        {
          "indexed": false,
          "internalType": "uint256",
          "name": "score",
          "type": "uint256"
        }
      ],
      "name": "VoteSubmitted",
      "type": "event"
    },
    {
      "anonymous": false,
      "inputs": [],
      "name": "VotingEnded",
      "type": "event"
    },
    {
      "inputs": [],
      "name": "admin",
      "outputs": [
        {
          "internalType": "address",
          "name": "",
          "type": "address"
        }
      ],
      "stateMutability": "view",
      "type": "function",
      "constant": true
    },
    {
      "inputs": [],
      "name": "candidateCount",
      "outputs": [
        {
          "internalType": "uint256",
          "name": "",
          "type": "uint256"
        }
      ],
      "stateMutability": "view",
      "type": "function",
      "constant": true
    },
    {
      "inputs": [
        {
          "internalType": "uint256",
          "name": "",
          "type": "uint256"
        }
      ],
      "name": "candidates",
      "outputs": [
        {
          "internalType": "uint256",
          "name": "id",
          "type": "uint256"
        },
        {
          "internalType": "string",
          "name": "name",
          "type": "string"
        },
        {
          "internalType": "uint256",
          "name": "score",
          "type": "uint256"
        }
      ],
      "stateMutability": "view",
      "type": "function",
      "constant": true
    },
    {
      "inputs": [
        {
          "internalType": "address",
          "name": "",
          "type": "address"
        }
      ],
      "name": "voters",
      "outputs": [
        {
          "internalType": "bool",
          "name": "hasVoted",
          "type": "bool"
        }
      ],
      "stateMutability": "view",
      "type": "function",
      "constant": true
    },
    {
      "inputs": [],
      "name": "votingOpen",
      "outputs": [
        {
          "internalType": "bool",
          "name": "",
          "type": "bool"
        }
      ],
      "stateMutability": "view",
      "type": "function",
      "constant": true
    },
    {
      "inputs": [
        {
          "internalType": "string",
          "name": "_name",
          "type": "string"
        }
      ],
      "name": "addCandidate",
      "outputs": [],
      "stateMutability": "nonpayable",
      "type": "function"
    },
    {
      "inputs": [
        {
          "internalType": "address",
          "name": "_voter",
          "type": "address"
        }
      ],
      "name": "registerVoter",
      "outputs": [],
      "stateMutability": "nonpayable",
      "type": "function"
    },
    {
      "inputs": [
        {
          "internalType": "uint256",
          "name": "_candidateId",
          "type": "uint256"
        },
        {
          "internalType": "uint256",
          "name": "_score",
          "type": "uint256"
        }
      ],
      "name": "vote",
      "outputs": [],
      "stateMutability": "nonpayable",
      "type": "function"
    },
    {
      "inputs": [],
      "name": "endVoting",
      "outputs": [],
      "stateMutability": "nonpayable",
      "type": "function"
    },
    {
      "inputs": [
        {
          "internalType": "uint256",
          "name": "_candidateId",
          "type": "uint256"
        }
      ],
      "name": "getCandidateScore",
      "outputs": [
        {
          "internalType": "uint256",
          "name": "",
          "type": "uint256"
        }
      ],
      "stateMutability": "view",
      "type": "function",
      "constant": true
    }
  ],
  "bytecode": "0x608060405234801561001057600080fd5b50336000806101000a81548173ffffffffffffffffffffffffffffffffffffffff021916908373ffffffffffffffffffffffffffffffffffffffff1602179055506001600460006101000a81548160ff021916908315150217905550600060038190555061116d806100836000396000f3fe608060405234801561001057600080fd5b506004361061009e5760003560e01c8063a9a981a311610066578063a9a981a31461015b578063b384abef14610179578063c3403ddf14610195578063e14b86331461019f578063f851a440146101cf5761009e565b80633477ee2e146100a357806338db6dd3146100d5578063462e91ec146100f1578063a3ec138d1461010d578063a95824b41461013d575b600080fd5b6100bd60048036038101906100b891906109ba565b6101ed565b6040516100cc93929190610a8f565b60405180910390f35b6100ef60048036038101906100ea9190610b2b565b61029f565b005b61010b60048036038101906101069190610c8d565b6103c0565b005b61012760048036038101906101229190610b2b565b6104d0565b6040516101349190610cf1565b60405180910390f35b6101456104fb565b6040516101529190610cf1565b60405180910390f35b61016361050e565b6040516101709190610d0c565b60405180910390f35b610193600480360381019061018e9190610d27565b610514565b005b61019d610762565b005b6101b960048036038101906101b491906109ba565b610839565b6040516101c69190610d0c565b60405180910390f35b6101d76108a9565b6040516101e49190610d76565b60405180910390f35b600260205280600052604060002060009150905080600001549080600101805461021690610dc0565b80601f016020809104026020016040519081016040528092919081815260200182805461024290610dc0565b801561028f5780601f106102645761010080835404028352916020019161028f565b820191906000526020600020905b81548152906001019060200180831161027257829003601f168201915b5050505050908060020154905083565b60008054906101000a900473ffffffffffffffffffffffffffffffffffffffff1673ffffffffffffffffffffffffffffffffffffffff163373ffffffffffffffffffffffffffffffffffffffff161461032d576040517f08c379a000000000000000000000000000000000000000000000000000000000815260040161032490610e63565b60405180910390fd5b600160008273ffffffffffffffffffffffffffffffffffffffff1673ffffffffffffffffffffffffffffffffffffffff16815260200190815260200160002060000160009054906101000a900460ff16156103bd576040517f08c379a00000000000000000000000000000000000000000000000000000000081526004016103b490610ecf565b60405180910390fd5b50565b60008054906101000a900473ffffffffffffffffffffffffffffffffffffffff1673ffffffffffffffffffffffffffffffffffffffff163373ffffffffffffffffffffffffffffffffffffffff161461044e576040517f08c379a000000000000000000000000000000000000000000000000000000000815260040161044590610e63565b60405180910390fd5b6003600081548092919061046190610f1e565b91905055506040518060600160405280600354815260200182815260200160008152506002600060035481526020019081526020016000206000820151816000015560208201518160010190805190602001906104bf9291906108cd565b506040820151816002015590505050565b60016020528060005260406000206000915090508060000160009054906101000a900460ff16905081565b600460009054906101000a900460ff1681565b60035481565b600460009054906101000a900460ff16610563576040517f08c379a000000000000000000000000000000000000000000000000000000000815260040161055a90610fb2565b60405180910390fd5b600160003373ffffffffffffffffffffffffffffffffffffffff1673ffffffffffffffffffffffffffffffffffffffff16815260200190815260200160002060000160009054906101000a900460ff16156105f3576040517f08c379a00000000000000000000000000000000000000000000000000000000081526004016105ea9061101e565b60405180910390fd5b60008211801561060557506003548211155b610644576040517f08c379a000000000000000000000000000000000000000000000000000000000815260040161063b9061108a565b60405180910390fd5b60018060003373ffffffffffffffffffffffffffffffffffffffff1673ffffffffffffffffffffffffffffffffffffffff16815260200190815260200160002060000160006101000a81548160ff02191690831515021790555080600160003373ffffffffffffffffffffffffffffffffffffffff1673ffffffffffffffffffffffffffffffffffffffff1681526020019081526020016000206001016000848152602001908152602001600020819055508060026000848152602001908152602001600020600201600082825461071c91906110aa565b925050819055507f14e951f08dc2b88b91ea511e843441db30f48b8f9944f4431daf69dbc9f12f4d33838360405161075693929190611100565b60405180910390a15050565b60008054906101000a900473ffffffffffffffffffffffffffffffffffffffff1673ffffffffffffffffffffffffffffffffffffffff163373ffffffffffffffffffffffffffffffffffffffff16146107f0576040517f08c379a00000000000000000000000000000000000000000000000000000000081526004016107e790610e63565b60405180910390fd5b6000600460006101000a81548160ff0219169083151502179055507f7a19ed057db79e3c2fa0b97a54b43bef4fce74b31bb6c01af514b9a18a7f70ab60405160405180910390a1565b6000808211801561084c57506003548211155b61088b576040517f08c379a00000000000000000000000000000000000000000000000000000000081526004016108829061108a565b60405180910390fd5b60026000838152602001908152602001600020600201549050919050565b60008054906101000a900473ffffffffffffffffffffffffffffffffffffffff1681565b8280546108d990610dc0565b90600052602060002090601f0160209004810192826108fb5760008555610942565b82601f1061091457805160ff1916838001178555610942565b82800160010185558215610942579182015b82811115610941578251825591602001919060010190610926565b5b50905061094f9190610953565b5090565b5b8082111561096c576000816000905550600101610954565b5090565b6000604051905090565b600080fd5b600080fd5b6000819050919050565b61099781610984565b81146109a257600080fd5b50565b6000813590506109b48161098e565b92915050565b6000602082840312156109d0576109cf61097a565b5b60006109de848285016109a5565b91505092915050565b6109f081610984565b82525050565b600081519050919050565b600082825260208201905092915050565b60005b83811015610a30578082015181840152602081019050610a15565b83811115610a3f576000848401525b50505050565b6000601f19601f8301169050919050565b6000610a61826109f6565b610a6b8185610a01565b9350610a7b818560208601610a12565b610a8481610a45565b840191505092915050565b6000606082019050610aa460008301866109e7565b8181036020830152610ab68185610a56565b9050610ac560408301846109e7565b949350505050565b600073ffffffffffffffffffffffffffffffffffffffff82169050919050565b6000610af882610acd565b9050919050565b610b0881610aed565b8114610b1357600080fd5b50565b600081359050610b2581610aff565b92915050565b600060208284031215610b4157610b4061097a565b5b6000610b4f84828501610b16565b91505092915050565b600080fd5b600080fd5b7f4e487b7100000000000000000000000000000000000000000000000000000000600052604160045260246000fd5b610b9a82610a45565b810181811067ffffffffffffffff82111715610bb957610bb8610b62565b5b80604052505050565b6000610bcc610970565b9050610bd88282610b91565b919050565b600067ffffffffffffffff821115610bf857610bf7610b62565b5b610c0182610a45565b9050602081019050919050565b82818337600083830152505050565b6000610c30610c2b84610bdd565b610bc2565b905082815260208101848484011115610c4c57610c4b610b5d565b5b610c57848285610c0e565b509392505050565b600082601f830112610c7457610c73610b58565b5b8135610c84848260208601610c1d565b91505092915050565b600060208284031215610ca357610ca261097a565b5b600082013567ffffffffffffffff811115610cc157610cc061097f565b5b610ccd84828501610c5f565b91505092915050565b60008115159050919050565b610ceb81610cd6565b82525050565b6000602082019050610d066000830184610ce2565b92915050565b6000602082019050610d2160008301846109e7565b92915050565b60008060408385031215610d3e57610d3d61097a565b5b6000610d4c858286016109a5565b9250506020610d5d858286016109a5565b9150509250929050565b610d7081610aed565b82525050565b6000602082019050610d8b6000830184610d67565b92915050565b7f4e487b7100000000000000000000000000000000000000000000000000000000600052602260045260246000fd5b60006002820490506001821680610dd857607f821691505b602082108103610deb57610dea610d91565b5b50919050565b7f4f6e6c792061646d696e2063616e20706572666f726d2074686973206163746960008201527f6f6e000000000000000000000000000000000000000000000000000000000000602082015250565b6000610e4d602283610a01565b9150610e5882610df1565b604082019050919050565b60006020820190508181036000830152610e7c81610e40565b9050919050565b7f566f74657220616c726561647920726567697374657265640000000000000000600082015250565b6000610eb9601883610a01565b9150610ec482610e83565b602082019050919050565b60006020820190508181036000830152610ee881610eac565b9050919050565b7f4e487b7100000000000000000000000000000000000000000000000000000000600052601160045260246000fd5b6000610f2982610984565b91507fffffffffffffffffffffffffffffffffffffffffffffffffffffffffffffffff8203610f5b57610f5a610eef565b5b600182019050919050565b7f566f74696e67206973206e6f74206f70656e0000000000000000000000000000600082015250565b6000610f9c601283610a01565b9150610fa782610f66565b602082019050919050565b60006020820190508181036000830152610fcb81610f8f565b9050919050565b7f416c726561647920766f74656400000000000000000000000000000000000000600082015250565b6000611008600d83610a01565b915061101382610fd2565b602082019050919050565b6000602082019050818103600083015261103781610ffb565b9050919050565b7f496e76616c69642063616e646964617465000000000000000000000000000000600082015250565b6000611074601183610a01565b915061107f8261103e565b602082019050919050565b600060208201905081810360008301526110a381611067565b9050919050565b60006110b582610984565b91506110c083610984565b9250827fffffffffffffffffffffffffffffffffffffffffffffffffffffffffffffffff038211156110f5576110f4610eef565b5b828201905092915050565b60006060820190506111156000830186610d67565b61112260208301856109e7565b61112f60408301846109e7565b94935050505056fea264697066735822122072aaccd3a305048cd42c2ebd9cfc4ca70970b76d166c1175ed1a74e359d0348f64736f6c634300080d0033",
  "immutableReferences": {},
  "source": "// SPDX-License-Identifier: MIT\npragma solidity >=0.4.22 <0.9.0;\n\ncontract ScoreVoting {\n    struct Candidate {\n        uint id;\n        string name;\n        uint score;\n    }\n\n    struct Voter {\n        bool hasVoted;\n        mapping(uint => uint) scores; // candidateId => score\n    }\n\n    address public admin;\n    mapping(address => Voter) public voters;\n    mapping(uint => Candidate) public candidates;\n    uint public candidateCount;\n    bool public votingOpen;\n\n    event VoteSubmitted(address voter, uint candidateId, uint score);\n    event VotingEnded();\n\n    modifier onlyAdmin() {\n        require(msg.sender == admin, \"Only admin can perform this action\");\n        _;\n    }\n\n    modifier votingIsOpen() {\n        require(votingOpen, \"Voting is not open\");\n        _;\n    }\n\n    constructor() {\n        admin = msg.sender;\n        votingOpen = true;\n        candidateCount = 0; // Ensure candidateCount is initialized to 0\n    }\n\n    function addCandidate(string memory _name) public onlyAdmin {\n        candidateCount++;\n        candidates[candidateCount] = Candidate(candidateCount, _name, 0);\n    }\n\n    function registerVoter(address _voter) public onlyAdmin {\n        require(!voters[_voter].hasVoted, \"Voter already registered\");\n        // Initialize Voter struct (no need to set hasVoted again here)\n    }\n\n    function vote(uint _candidateId, uint _score) public votingIsOpen {\n        require(!voters[msg.sender].hasVoted, \"Already voted\");\n        require(\n            _candidateId > 0 && _candidateId <= candidateCount,\n            \"Invalid candidate\"\n        );\n\n        voters[msg.sender].hasVoted = true;\n        voters[msg.sender].scores[_candidateId] = _score;\n        candidates[_candidateId].score += _score;\n\n        emit VoteSubmitted(msg.sender, _candidateId, _score);\n    }\n\n    function endVoting() public onlyAdmin {\n        votingOpen = false;\n        emit VotingEnded();\n    }\n\n    function getCandidateScore(uint _candidateId) public view returns (uint) {\n        require(\n            _candidateId > 0 && _candidateId <= candidateCount,\n            \"Invalid candidate\"\n        );\n        return candidates[_candidateId].score;\n    }\n}\n",
  "sourcePath": "/home/stanley/btda-self-tallying-election/ScoreVoting.sol",
  "compiler": {
    "name": "solc",
    "version": "0.8.13+commit.abaa5c0e.Emscripten.clang"
  },
  "schemaVersion": "3.4.16",
  "updatedAt": "2024-06-20T07:53:56.566Z",
  "networkType": "ethereum",
  "devdoc": {
    "kind": "dev",
    "methods": {},
    "version": 1
  },
  "userdoc": {
    "kind": "user",
    "methods": {},
    "version": 1
  }
}